:100000000C9434000C9482000C94B3000C94E50022
:100010000C944F000C9451000C944F000C944F0022
:100020000C944F000C944F000C944F000C944F0014
:100030000C944F000C944F000C944F000C944F0004
:100040000C944F000C944F000C944F000C944F00F4
:100050000C944F000C944F000C944F000C944F00E4
:100060000C944F000C944F0011241FBECFEFD4E02E
:10007000DEBFCDBF11E0A0E0B1E0E2EFF9E102C0E8
:1000800005900D92A230B107D9F711E0A2E0B1E0DE
:1000900001C01D92A738B107E1F70C94300C0C9405
:1000A00000001F920F920FB60F9211242F933F93CF
:1000B0008F939F9389B182958F7080FF09C0809143
:1000C000840090918500909364018093630111C036
:1000D00080918400909185002091630130916401AA
:1000E000821B930B909376018093750188EC80932B
:1000F00003019F918F913F912F910F900FBE0F9011
:100100001F9018951F920F920FB60F9211242F93E4
:100110003F938F939F9389B18695869580FF09C001
:10012000809184009091850090933D0180933C01E3
:1001300011C0809184009091850020913C01309104
:100140003D01821B930B909359018093580188ECD9
:10015000809304019F918F913F912F910F900FBE3B
:100160000F901F9018951F920F920FB60F921124A7
:100170002F933F938F939F9389B18695869586950C
:1001800080FF09C0809184009091850090934D017B
:1001900080934C0111C08091840090918500209142
:1001A0004C0130914D01821B930B9093740180930D
:1001B000730188EC809305019F918F913F912F915E
:1001C0000F900FBE0F901F9018951F920F920FB6B1
:1001D0000F9211242F933F938F939F93189B09C0E5
:1001E000809184009091850090936C0180936B01C5
:1001F00011C0809184009091850020916B01309115
:100200006C01821B930B909343018093420188EC15
:10021000809306019F918F913F912F910F900FBE78
:100220000F901F9018958FE380937E0010927B00B3
:10023000089510927C0110927D0110927E0120EFB2
:1002400035E03093800120937F0130938201209329
:10025000810180E694E09093840180938301309340
:100260008601209385010895CF938091070188230B
:1002700009F4FCC08091390190913A0197FF05C0C3
:1002800010923A011092390109C08536910534F077
:1002900084E690E090933A0180933901809148017F
:1002A0009091490197FF05C01092490110924801B1
:1002B00009C08536910534F084E690E090934901B9
:1002C0008093480180915C0190915D0197FF05C08A
:1002D00010925D0110925C0109C08536910534F0E1
:1002E00084E690E090935D0180935C0180915001E1
:1002F0009091510197FF05C0109251011092500149
:1003000009C08536910534F084E690E09093510160
:1003100080935001809184009091850020910F017D
:1003200030911001821B930B909312018093110165
:100330006AE070E00E947C0CC62FCF5FC09317016B
:100340002C2F332727FD309584E690E0821B930BFA
:100350009093140180931301E0913901F0913A01D7
:10036000E80FF91FF0933A01E093390160914801D9
:1003700070914901680F791F70934901609348019A
:1003800040915C0150915D01480F591F50935D01F0
:1003900040935C012091500130915101280F391F89
:1003A0003093510120935001A89816BCC0930E01C0
:1003B000C83C08F03AC0DF01FB01BA01A9012C2FAB
:1003C00086B58035E8F386B5805586BD109719F05F
:1003D000119709F42A98309719F0319709F4299860
:1003E0006115710521F06150704009F45F98411565
:1003F000510521F04150504009F45E98822F8F5FE3
:10040000282F883CE8F280930E01509351014093CD
:10041000500170935D0160935C01F0934901E0939A
:100420004801B0933A01A093390180910001909165
:100430000101A89816BC02979093160180931501AC
:100440002FEF8F3F920791F09C0186B58035E8F33E
:1004500086B5805586BDC90101979C014FEF8F3F3E
:10046000940799F79093160180931501809162018A
:10047000882379F0809184009091850090931001F9
:1004800080930F0181E0809307012A9A299A5F9A4D
:100490005E9ACF91089510923A011092390110920C
:1004A00049011092480110925D0110925C01109276
:1004B00051011092500180910701882309F492C0E4
:1004C00080918400909185002091190130911A014A
:1004D000821B930B90931C0180931B016AE070E0D8
:1004E0000E947C0C6F5F60932101862F992787FD06
:1004F000909524E630E0281B390B30931E012093A1
:100500001D0130933A012093390130934901209322
:10051000480130935D0120935C0130935101209399
:100520005001A89816BC60931801683C08F039C0C7
:10053000D901F901A901962F86B58035E8F386B572
:10054000805586BD2115310521F02150304009F438
:100550002A98109719F0119709F42998309719F0F3
:10056000319709F45F984115510521F041505040F1
:1005700009F45E98892F8F5F982F883CE8F280936A
:1005800018015093510140935001F0935D01E093A5
:100590005C01B0934901A093480130933A01209344
:1005A00039018091000190910101A89816BC029731
:1005B0009093200180931F012FEF8F3F920791F0BE
:1005C0009C0186B58035E8F386B5805586BDC901A6
:1005D00001979C014FEF8F3F940799F7909320016B
:1005E00080931F01809184009091850090931A015F
:1005F0008093190181E0809307012A9A299A5F9AD2
:100600005E9A089580937C0083EC80937A008091B9
:100610007A0086FDFCCF089581E00E9402032091BC
:100620007800309179008091080190910901281B90
:10063000390B8091310190913201820F931F959572
:100640008795909332018093310180E00E940203EC
:10065000209178003091790080910A0190910B01EE
:10066000281B390B8091330190913401820F931F25
:1006700095958795909334018093330182E00E9491
:100680000203209178003091790080910C019091C3
:100690000D01281B390B8091350190913601820F95
:1006A000931F959587959093360180933501089512
:1006B000EF92FF920F931F9383E00E9402038091B9
:1006C0007800909179000FEF13E09801281B390B07
:1006D000C90130936601209365015AE0E52EF12CA3
:1006E000B7010E947C0C709353016093520186E025
:1006F0000E94020380917800909179009801281B54
:10070000390BC9013093680120936701B7010E943A
:100710007C0C709355016093540187E00E940203A2
:100720008091780090917900081B190BC8011093F3
:100730006A0100936901B7010E947C0C7093570114
:10074000609356011F910F91FF90EF90089581E003
:100750000E940203809178009091790090936E013D
:1007600080936D0180E00E94020380917800909157
:1007700079009093700180936F0182E00E940203E0
:10078000809178009091790090937201809371012B
:100790000895CF930E945803109209011092080106
:1007A00010920B0110920A0110920D0110920C018F
:1007B000CFE10E94A7036091080170910901809127
:1007C0006D0190916E01680F791F7093090160931C
:1007D000080140910A0150910B0180916F019091A5
:1007E0007001480F591F50930B0140930A0120914B
:1007F0000C0130910D018091710190917201280FCF
:10080000391F30930D0120930C01C150C7FFD1CF88
:10081000E5E075956795EA95E1F7709309016093B6
:10082000080175E0559547957A95E1F750930B01CE
:1008300040930A0165E0359527956A95E1F7309375
:100840000D0120930C0181E080933B01CF9108952D
:100850009C01DC010E94E00C802D861721F0D9015B
:10086000062E0E94ED0C0895CF92DF92EF92FF9238
:100870000F931F93CF93DF936C01EB017A0100E09C
:1008800010E00417150760F4F60161916F01CE01C5
:100890000E94280421960F5F1F4F0E151F05A0F31D
:1008A000DF91CF911F910F91FF90EF90DF90CF904C
:1008B0000895F8944CE050E06AE070E08BE791E036
:1008C0000E94340478940895AAE0B0E00E94E00CFD
:1008D000802D873441F087E480937B010E941901C9
:1008E0000E9459040895EBE7F1E0AAE0B0E08CE043
:1008F000182E0E94E80C089581508F3F41F00000AF
:10090000000000000000000000000000F5CF089586
:100910001F93CF93DF93EC0121978FEFCF3FD80741
:1009200061F019E084E60E947C04115017FFFACFB1
:1009300021978FEFCF3FD807A1F7DF91CF911F917C
:1009400008959C016115710509F40895FC01E61BE9
:10095000F70B4E175F0724F4CB01840F951F089502
:1009600088279927841B950BE817F90724F4CB01F6
:10097000841B950B0895C901860F971F9595879540
:10098000089580910301882329F08091030181500B
:100990008093030180910401882329F08091040150
:1009A00081508093040180910501882329F0809172
:1009B000050181508093050180910601882329F06B
:1009C0008091060181508093060180910301882364
:1009D00029F4109245011092440139C080917501AB
:1009E000909176018458934018F484E893E009C00C
:1009F00080917501909176018553984030F084E3A1
:100A000098E09093760180937501809175019091A3
:100A1000760120917F0130918001821B930B90938E
:100A200023018093220144E150E0609177017091AD
:100A3000780195958795959587950E94A104909347
:100A400045018093440190937801809377018091D0
:100A50000401882329F4109261011092600139C0C9
:100A600080915801909159018458934018F484E87A
:100A700093E009C0809158019091590185539840A5
:100A800030F084E398E0909359018093580180916D
:100A90005801909159012091810130918201821B6E
:100AA000930B909323018093220144E150E06091E5
:100AB0002F017091300195958795959587950E94A6
:100AC000A104909361018093600190933001809321
:100AD0002F0180910501882329F410922C01109296
:100AE0002B013AC080917301909174018458934016
:100AF00018F484E893E009C0809173019091740127
:100B00008553984030F084E398E09093740180938B
:100B10007301809173019091740120918301309150
:100B20008401821B930B909323018093220144E163
:100B300050E06091370170913801B3E09595879549
:100B4000BA95E1F70E94A10490932C0180932B01A8
:100B5000909338018093370180910601882329F40E
:100B600010924701109246010895809142019091A0
:100B700043018458934018F484E893E009C08091BD
:100B80004201909143018553984030F084E398E00E
:100B900090934301809342018091420190914301DF
:100BA0002091850130918601821B930B9093230144
:100BB0008093220141E050E060914E0170914F011D
:100BC00095958795959587950E94A10490934701E7
:100BD0008093460190934F0180934E010895EF92C8
:100BE000FF920F931F93CF93DF9310928001109287
:100BF0007F01109282011092810110928601109261
:100C00008501C0E0D0E07E018E0113C085B18295E0
:100C1000869586958370809581708295880F880F60
:100C2000807C95B19F7B982B95B982E390E00E94E0
:100C300088048091580190915901805F954097FFF9
:100C400003C0909581959F4F89379105FCF62E9AA8
:100C500080ED97E00E9488046AEA75E04EE056E075
:100C60002FE030E080917501909176018A5A95408D
:100C700028F470937601609375010BC08091750123
:100C8000909176018F50964020F0509376014093DA
:100C9000750180915801909159018A5A954028F424
:100CA00070935901609358010BC080915801909145
:100CB00059018F50964020F05093590140935801AC
:100CC00080914201909143018A5A954028F4709393
:100CD0004301609342010BC0809142019091430116
:100CE0008F50964020F050934301409342018091F1
:100CF000750190917601080F191F8091580190910C
:100D00005901E80EF91E8091420190914301C80FEC
:100D1000D91F2150304037FFA5CF64E016950795C5
:100D20006A95E1F71093800100937F0154E0F694F7
:100D3000E7945A95E1F7F0928201E092810180E612
:100D400094E0909384018093830144E0D695C79505
:100D50004A95E1F7D0938601C09385010E9459041A
:100D60000E94C1042E9886E990E00E9488042E9A81
:100D7000DF91CF911F910F91FF90EF900895CF9247
:100D8000DF92EF92FF920F931F93CF93DF930E9416
:100D9000C10480912B0190912C013091620197FF49
:100DA000F2C12091B20080912701281B809125017A
:100DB00090912601820F911D909326018093250129
:100DC0008091B200809327012091B2008091280188
:100DD000281B80912D0190912E01820F911D9093DF
:100DE0002E0180932D018091B2008093280133233E
:100DF00059F08091460190914701855C9F4F24F006
:100E000010922A0110922901809146019091470188
:100E1000332371F4CC9724F18091600190916101AA
:100E200097FF03C0909581959F4F8997ECF018C06C
:100E3000855C9F4F5CF4809160019091610197FF08
:100E400003C0909581959F4F899724F010922601B9
:100E5000109225018091290190912A01892B21F07E
:100E60001092260110922501809125019091260172
:100E700083549F4070F180E0332309F481E0809334
:100E800062012E9A10927A01109279018823D9F08A
:100E90000E94C903109207012E98809102018823B5
:100EA00019F084E690E002C08CE390E090935B013F
:100EB00080935A0190934B0180934A0190935F0174
:100EC00080935E0169C380910701882309F464C39C
:100ED0005EC3332309F461C08091460190914701BC
:100EE000845C9F4F0CF059C080916001909161012A
:100EF000CD970CF452C08091790190917A01892BA1
:100F000009F042C08FE69EEF90937A0180937901B9
:100F10000E94C9031092070186E990E00E948804AC
:100F200020910201222379F084E690E090935B0106
:100F300080935A0190934B0180934A0190935F01F3
:100F400080935E0121C08CE390E090935B018093DD
:100F50005A0190934B0180934A0190935F018093D3
:100F60005E01209324012E9A89E190E00E9488047A
:100F70002E9889E190E00E948804809124018F5F7F
:100F800080932401882379F38091790190917A01EB
:100F9000019690937A018093790180916201882370
:100FA00009F462C08091460190914701845C9F4F93
:100FB0000CF05AC08091600190916101845C9F4F58
:100FC0000CF052C08091790190917A01892B09F03F
:100FD00042C08FE69EEF90937A01809379010E9440
:100FE000C9031092070184E690E00E9488042091D2
:100FF0000201222379F084E690E090935B018093D4
:101000005A0190934B0180934A0190935F01809322
:101010005E0121C080E590E090935B0180935A01CE
:1010200090934B0180934A0190935F0180935E01FE
:10103000209324012E9A89E190E00E9488042E9842
:1010400089E190E00E948804809124018F5F809361
:101050002401823078F38091790190917A01019690
:1010600090937A018093790180916201882309F439
:101070005FC08091460190914701CD970CF458C014
:101080008091600190916101845C9F4F0CF050C091
:101090008091790190917A01892B09F040C08FE607
:1010A0009EEF90937A01809379010E94C903109278
:1010B000070120910201222379F084E690E09093C9
:1010C0005B0180935A0190934B0180934A01909366
:1010D0005F0180935E0123C08CE390E090935B01FD
:1010E00080935A0190934B0180934A0184E690E0EB
:1010F00090935F0180935E01209324012E9A89E1F1
:1011000090E00E9488042E9889E190E00E94880473
:10111000809124018F5F80932401843078F3809143
:10112000790190917A01019690937A0180937901E7
:10113000809162018823A9F480915801909159010E
:101140008950974070F080914201909143018B55F6
:10115000954038F080914201909143018658964025
:1011600020F010922E0110922D0180912D0190916E
:101170002E018E589B45F0F010922E0110922D01F9
:101180000E94EF0517C0332389F0809146019091AA
:101190004701845C9F4F54F48091290190912A016A
:1011A000019690932A018093290104C010922A018C
:1011B000109229010E940C0380912B0190912C0127
:1011C0008036910534F08FE590E090932C01809368
:1011D0002B01C0902B01D0902C01D0923A01C092EB
:1011E0003901D0924901C0924801D0925D01C0926C
:1011F0005C01D0925101C0925001809131019091D7
:1012000032017C010027F7FC0095102F80915201DC
:10121000909153019C0144275527C801B7010E94B2
:101220005D0CDC01CB01BC01CD012CE330E040E0E2
:1012300050E00E94A30CFA01E901203B8FEF380730
:101240008FEF48078FEF58072CF4C0EBDFEFEFEF7D
:10125000FFEF09C0213531054105510524F0C0E5F6
:10126000D0E0E0E0F0E0D0933201C0933101809112
:1012700044019091450120915A0130915B01829F78
:10128000A001839F500D929F500D1124CA0164E666
:1012900070E00E94900C709345016093440180912E
:1012A0007C01882341F4CE01860F971F909345015E
:1012B0008093440106C06C1B7D0B709345016093C5
:1012C000440180914801909149012091440130915D
:1012D0004501820F931F90934901809348018091AB
:1012E0005C0190915D01821B930B90935D01809353
:1012F0005C0180913301909134017C010027F7FC5F
:101300000095102F80915401909155019C01442724
:101310005527C801B7010E945D0CDC01CB01BC015F
:10132000CD012CE330E040E050E00E94A30CFA0134
:10133000E901C03B5FEFD5075FEFE5075FEFF5071A
:101340002CF4C0EBDFEFEFEFFFEF09C0C135D105A3
:10135000E105F10524F0C0E5D0E0E0E0F0E0D09355
:101360003401C0933301809160019091610120911B
:101370004A0130914B01829FA001839F500D929FA3
:10138000500D1124CA0164E670E00E94900C709325
:1013900061016093600180917D01882341F4CE0159
:1013A000860F971F909361018093600106C06C1BAC
:1013B0007D0B709361016093600180913901909180
:1013C0003A012091600130916101820F931F909347
:1013D0003A01809339018091500190915101821B13
:1013E000930B90935101809350018091350190911E
:1013F00036017C010027F7FC0095102F80915601E3
:10140000909157019C0144275527C801B7010E94BC
:101410005D0CDC01CB01BC01CD012CE330E040E0F0
:1014200050E00E94A30CFA01E901C03B5FEFD50731
:101430005FEFE5075FEFF5072CF4C0EBDFEFEFEFB1
:10144000FFEF09C0C135D105E105F10524F0C0E584
:10145000D0E0E0E0F0E0D0933601C0933501809118
:1014600046019091470120915E0130915F01829F7A
:10147000A001839F500D929F500D1124CA0164E674
:1014800070E00E94900C7093470160934601809138
:101490007E01882341F4CE01860F971F9093470168
:1014A0008093460106C06C1B7D0B709347016093CF
:1014B00046012091390130913A0180914601909185
:1014C0004701281B390B30933A0120933901E091F1
:1014D0005001F0915101E81BF90BF0935101E09399
:1014E00050014091480150914901480F591F5093B4
:1014F00049014093480160915C0170915D01680F62
:10150000791F70935D0160935C012A30310534F4DA
:101510008AE090E090933A01809339014A30510576
:1015200034F48AE090E090934901809348016A3056
:10153000710534F48AE090E090935D0180935C0142
:101540003A9734F48AE090E09093510180935001EF
:101550001C141D0444F480916201882321F08091C1
:101560003B01882381F410923A01109239011092C4
:1015700049011092480110925D0110925C01109295
:1015800051011092500180916201882319F00E944C
:10159000340102C00E944B02DF91CF911F910F9145
:1015A000FF90EF90DF90CF900895CF92DF92EF926F
:1015B000FF920F931F93CF93DF9385B7806185BF11
:1015C00054985298539820985C9A5A9A5B9A289A01
:1015D0003A98389839983F983E983B98229A219AA1
:1015E000579A569A269A2E9A4C984A984B98189839
:1015F00080916800816080936800809168008460B9
:101600008093680080916B00816080936B00809173
:101610006D00806180936D0085E08093690083E0B8
:101620008DBB8CB383608CBB14BC81E085BD1092F4
:101630006E001092800082E0809381001092B000D2
:1016400087E08093B1001092700017BA1092B20038
:101650000E9464040E94130110923B0110926201E7
:1016600080917F0190918001909376018093750124
:10167000809181019091820190935901809358014A
:101680008091830190918401909374018093730100
:10169000809185019091860190934301809342014E
:1016A0002E9886E990E00E9488042E9A78948CED1A
:1016B00095E00E9488040E9458030E9458032091DC
:1016C00067013091680123333105B8F480916501D9
:1016D00090916601C39788F48091690190916A01A5
:1016E000C39758F40E9419010E9459042E9886E964
:1016F00090E00E9488042E9AFFCF2333310508F032
:101700005BC01092800110927F01109282011092B2
:1017100081011092860110928501C2E0D0E02E98DE
:1017200089E190E00E9488042E9A89E190E00E946D
:1017300088042197D7FFF3CF88EB9BE00E948804B1
:1017400000E010E068017801C3E0D0E00E94C1042D
:101750008091440190914501E80EF91E809160014D
:1017600090916101C80ED91E809146019091470168
:10177000080F191F84E690E00E9488042197D7FF84
:10178000E5CFF0928001E0927F01D0928201C09279
:10179000810180E694E0909384018093830110930B
:1017A0008601009385010E9459042E9886E990E0F5
:1017B0000E9488042E9AFFCF8091690190916A015E
:1017C000C39708F044C0C2E0D0E02E9889E190E0D1
:1017D0000E9488042E9A89E190E00E948804219753
:1017E000D7FFF3CF8AEC98E00E948804C2E0D0E0F3
:1017F0002E9889E190E00E9488042E9A89E190E079
:101800000E9488042197D7FFF3CF81E08093620183
:1018100088E097E090930101809300010E94C10449
:1018200080912B0190912C0190933A018093390182
:10183000909349018093480190935D0180935C01EE
:1018400090935101809350010E943401E7CFDF91C2
:10185000CF911F910F91FF90EF90DF90CF9008955F
:10186000CFEFD4E0DEBFCDBF0E94D50AC0E01C2F71
:101870000E94C10480917301909174018855924037
:1018800070F480917301909174018159914038F006
:101890001F5F2E9881E090E00E9488042E9A1536F2
:1018A00020F081E08093020102C010920201CF5F1C
:1018B000C83CF0F20E94BF06FDCF629FD001739F2B
:1018C000F001829FE00DF11D649FE00DF11D929FDC
:1018D000F00D839FF00D749FF00D659FF00D99271B
:1018E000729FB00DE11DF91F639FB00DE11DF91F3F
:1018F000BD01CF0111240895AA1BBB1B51E107C0F4
:10190000AA1FBB1FA617B70710F0A61BB70B881F8F
:10191000991F5A95A9F780959095BC01CD0108951E
:1019200097FB092E07260AD077FD04D0E5DF06D005
:1019300000201AF4709561957F4F0895F6F7909501
:1019400081959F4F089597FB092E05260ED057FDD0
:1019500004D014D00AD0001C38F45095409530952E
:1019600021953F4F4F4F5F4F0895F6F79095809523
:10197000709561957F4F8F4F9F4F0895A1E21A2E6A
:10198000AA1BBB1BFD010DC0AA1FBB1FEE1FFF1F23
:10199000A217B307E407F50720F0A21BB30BE40B73
:1019A000F50B661F771F881F991F1A9469F76095BA
:1019B0007095809590959B01AC01BD01CF01089574
:1019C000F999FECFB2BDA1BDF89A119600B4089561
:1019D000F7DF01921A94E1F70895F999FECFB2BDAD
:1019E000A1BD00BC11960FB6F894FA9AF99A0FBEF1
:0219F000089558
:0219F2000200F1
:00000001FF
